{
    "contractName": "Auctionhouse",
    "abi": [
        {
            "inputs": [
                {
                    "internalType": "uint256",
                    "name": "_feePercent",
                    "type": "uint256"
                }
            ],
            "stateMutability": "nonpayable",
            "type": "constructor"
        },
        {
            "inputs": [],
            "name": "feeAccount",
            "outputs": [
                {
                    "internalType": "address payable",
                    "name": "",
                    "type": "address"
                }
            ],
            "stateMutability": "view",
            "type": "function"
        },
        {
            "inputs": [],
            "name": "feePercent",
            "outputs": [
                {
                    "internalType": "uint256",
                    "name": "",
                    "type": "uint256"
                }
            ],
            "stateMutability": "view",
            "type": "function"
        },
        {
            "inputs": [],
            "name": "itemCount",
            "outputs": [
                {
                    "internalType": "uint256",
                    "name": "",
                    "type": "uint256"
                }
            ],
            "stateMutability": "view",
            "type": "function"
        },
        {
            "inputs": [
                {
                    "internalType": "uint256",
                    "name": "",
                    "type": "uint256"
                }
            ],
            "name": "items",
            "outputs": [
                {
                    "internalType": "uint256",
                    "name": "itemId",
                    "type": "uint256"
                },
                {
                    "internalType": "contract IERC721",
                    "name": "nft",
                    "type": "address"
                },
                {
                    "internalType": "uint256",
                    "name": "tokenId",
                    "type": "uint256"
                },
                {
                    "internalType": "address payable",
                    "name": "owner",
                    "type": "address"
                },
                {
                    "internalType": "uint256",
                    "name": "status",
                    "type": "uint256"
                }
            ],
            "stateMutability": "view",
            "type": "function"
        },
        {
            "inputs": [
                {
                    "internalType": "contract IERC721",
                    "name": "_nft",
                    "type": "address"
                },
                {
                    "internalType": "uint256",
                    "name": "_tokenId",
                    "type": "uint256"
                }
            ],
            "name": "makeItem",
            "outputs": [],
            "stateMutability": "nonpayable",
            "type": "function"
        }
    ],
    "bytecode": "60c060405234801561001057600080fd5b506040516102d23803806102d283398101604081905261002f91610040565b60016000553360805260a052610059565b60006020828403121561005257600080fd5b5051919050565b60805160a05161025661007c600039600060d101526000607601526102566000f3fe608060405234801561001057600080fd5b50600436106100575760003560e01c80631a1beae21461005c57806365e17c9d146100715780636bfb0d01146100b55780637fd6f15c146100cc578063bfb231d2146100f3575b600080fd5b61006f61006a3660046101cf565b610170565b005b6100987f000000000000000000000000000000000000000000000000000000000000000081565b6040516001600160a01b0390911681526020015b60405180910390f35b6100be60015481565b6040519081526020016100ac565b6100be7f000000000000000000000000000000000000000000000000000000000000000081565b61013e610101366004610207565b60026020819052600091825260409091208054600182015492820154600383015460049093015491936001600160a01b0390811693919291169085565b604080519586526001600160a01b0394851660208701528501929092529091166060830152608082015260a0016100ac565b6002600054036101c65760405162461bcd60e51b815260206004820152601f60248201527f5265656e7472616e637947756172643a207265656e7472616e742063616c6c00604482015260640160405180910390fd5b50506001600055565b600080604083850312156101e257600080fd5b82356001600160a01b03811681146101f957600080fd5b946020939093013593505050565b60006020828403121561021957600080fd5b503591905056fea264697066735822122046747036f939271bf908f5bbe1b4f00417d2250b423ad3d38a930dd1e44d68b964736f6c63430008110033",
    "sourcePath": "/home/antokoufis/Desktop/NFT-Auctionhouse/src/backend/contracts/Auctionhouse.sol",
    "compiler": {
        "name": "solc",
        "version": "0.8.17+commit.8df45f5f"
    },
    "functionHashes": {
        "feeAccount()": "65e17c9d",
        "feePercent()": "7fd6f15c",
        "itemCount()": "6bfb0d01",
        "items(uint256)": "bfb231d2",
        "makeItem(address,uint256)": "1a1beae2"
    },
    "gasEstimates": {
        "creation": {
            "codeDepositCost": "119600",
            "executionCost": "infinite",
            "totalCost": "infinite"
        },
        "external": {
            "feeAccount()": "infinite",
            "feePercent()": "infinite",
            "itemCount()": "2317",
            "items(uint256)": "11105",
            "makeItem(address,uint256)": "24499"
        }
    }
}